{
  "contractName": "pool",
  "abi": [
    {
      "inputs": [
        {
          "internalType": "address",
          "name": "_token1",
          "type": "address"
        },
        {
          "internalType": "address",
          "name": "_token2",
          "type": "address"
        }
      ],
      "stateMutability": "nonpayable",
      "type": "constructor"
    },
    {
      "inputs": [
        {
          "internalType": "address",
          "name": "spender",
          "type": "address"
        },
        {
          "internalType": "uint256",
          "name": "allowance",
          "type": "uint256"
        },
        {
          "internalType": "uint256",
          "name": "needed",
          "type": "uint256"
        }
      ],
      "name": "ERC20InsufficientAllowance",
      "type": "error"
    },
    {
      "inputs": [
        {
          "internalType": "address",
          "name": "sender",
          "type": "address"
        },
        {
          "internalType": "uint256",
          "name": "balance",
          "type": "uint256"
        },
        {
          "internalType": "uint256",
          "name": "needed",
          "type": "uint256"
        }
      ],
      "name": "ERC20InsufficientBalance",
      "type": "error"
    },
    {
      "inputs": [
        {
          "internalType": "address",
          "name": "approver",
          "type": "address"
        }
      ],
      "name": "ERC20InvalidApprover",
      "type": "error"
    },
    {
      "inputs": [
        {
          "internalType": "address",
          "name": "receiver",
          "type": "address"
        }
      ],
      "name": "ERC20InvalidReceiver",
      "type": "error"
    },
    {
      "inputs": [
        {
          "internalType": "address",
          "name": "sender",
          "type": "address"
        }
      ],
      "name": "ERC20InvalidSender",
      "type": "error"
    },
    {
      "inputs": [
        {
          "internalType": "address",
          "name": "spender",
          "type": "address"
        }
      ],
      "name": "ERC20InvalidSpender",
      "type": "error"
    },
    {
      "anonymous": false,
      "inputs": [
        {
          "indexed": true,
          "internalType": "address",
          "name": "owner",
          "type": "address"
        },
        {
          "indexed": true,
          "internalType": "address",
          "name": "spender",
          "type": "address"
        },
        {
          "indexed": false,
          "internalType": "uint256",
          "name": "value",
          "type": "uint256"
        }
      ],
      "name": "Approval",
      "type": "event"
    },
    {
      "anonymous": false,
      "inputs": [
        {
          "indexed": true,
          "internalType": "address",
          "name": "from",
          "type": "address"
        },
        {
          "indexed": true,
          "internalType": "address",
          "name": "to",
          "type": "address"
        },
        {
          "indexed": false,
          "internalType": "uint256",
          "name": "value",
          "type": "uint256"
        }
      ],
      "name": "Transfer",
      "type": "event"
    },
    {
      "inputs": [
        {
          "internalType": "address",
          "name": "owner",
          "type": "address"
        },
        {
          "internalType": "address",
          "name": "spender",
          "type": "address"
        }
      ],
      "name": "allowance",
      "outputs": [
        {
          "internalType": "uint256",
          "name": "",
          "type": "uint256"
        }
      ],
      "stateMutability": "view",
      "type": "function",
      "constant": true
    },
    {
      "inputs": [
        {
          "internalType": "address",
          "name": "spender",
          "type": "address"
        },
        {
          "internalType": "uint256",
          "name": "value",
          "type": "uint256"
        }
      ],
      "name": "approve",
      "outputs": [
        {
          "internalType": "bool",
          "name": "",
          "type": "bool"
        }
      ],
      "stateMutability": "nonpayable",
      "type": "function"
    },
    {
      "inputs": [
        {
          "internalType": "address",
          "name": "account",
          "type": "address"
        }
      ],
      "name": "balanceOf",
      "outputs": [
        {
          "internalType": "uint256",
          "name": "",
          "type": "uint256"
        }
      ],
      "stateMutability": "view",
      "type": "function",
      "constant": true
    },
    {
      "inputs": [],
      "name": "decimals",
      "outputs": [
        {
          "internalType": "uint8",
          "name": "",
          "type": "uint8"
        }
      ],
      "stateMutability": "view",
      "type": "function",
      "constant": true
    },
    {
      "inputs": [],
      "name": "name",
      "outputs": [
        {
          "internalType": "string",
          "name": "",
          "type": "string"
        }
      ],
      "stateMutability": "view",
      "type": "function",
      "constant": true
    },
    {
      "inputs": [],
      "name": "symbol",
      "outputs": [
        {
          "internalType": "string",
          "name": "",
          "type": "string"
        }
      ],
      "stateMutability": "view",
      "type": "function",
      "constant": true
    },
    {
      "inputs": [],
      "name": "totalSupply",
      "outputs": [
        {
          "internalType": "uint256",
          "name": "",
          "type": "uint256"
        }
      ],
      "stateMutability": "view",
      "type": "function",
      "constant": true
    },
    {
      "inputs": [],
      "name": "total_lp",
      "outputs": [
        {
          "internalType": "uint256",
          "name": "",
          "type": "uint256"
        }
      ],
      "stateMutability": "view",
      "type": "function",
      "constant": true
    },
    {
      "inputs": [
        {
          "internalType": "address",
          "name": "to",
          "type": "address"
        },
        {
          "internalType": "uint256",
          "name": "value",
          "type": "uint256"
        }
      ],
      "name": "transfer",
      "outputs": [
        {
          "internalType": "bool",
          "name": "",
          "type": "bool"
        }
      ],
      "stateMutability": "nonpayable",
      "type": "function"
    },
    {
      "inputs": [
        {
          "internalType": "address",
          "name": "from",
          "type": "address"
        },
        {
          "internalType": "address",
          "name": "to",
          "type": "address"
        },
        {
          "internalType": "uint256",
          "name": "value",
          "type": "uint256"
        }
      ],
      "name": "transferFrom",
      "outputs": [
        {
          "internalType": "bool",
          "name": "",
          "type": "bool"
        }
      ],
      "stateMutability": "nonpayable",
      "type": "function"
    },
    {
      "inputs": [
        {
          "internalType": "uint256",
          "name": "c1",
          "type": "uint256"
        }
      ],
      "name": "adder",
      "outputs": [],
      "stateMutability": "nonpayable",
      "type": "function"
    },
    {
      "inputs": [
        {
          "internalType": "uint256",
          "name": "c1",
          "type": "uint256"
        },
        {
          "internalType": "uint256",
          "name": "c2",
          "type": "uint256"
        }
      ],
      "name": "liquidityproviders",
      "outputs": [],
      "stateMutability": "payable",
      "type": "function",
      "payable": true
    },
    {
      "inputs": [],
      "name": "accountBalance",
      "outputs": [
        {
          "internalType": "uint256",
          "name": "",
          "type": "uint256"
        },
        {
          "internalType": "uint256",
          "name": "",
          "type": "uint256"
        },
        {
          "internalType": "uint256",
          "name": "",
          "type": "uint256"
        }
      ],
      "stateMutability": "view",
      "type": "function",
      "constant": true
    },
    {
      "inputs": [
        {
          "internalType": "uint256",
          "name": "c1",
          "type": "uint256"
        }
      ],
      "name": "trade_C2ForC1",
      "outputs": [],
      "stateMutability": "payable",
      "type": "function",
      "payable": true
    },
    {
      "inputs": [
        {
          "internalType": "uint256",
          "name": "c2",
          "type": "uint256"
        }
      ],
      "name": "trade_C1ForC2",
      "outputs": [],
      "stateMutability": "payable",
      "type": "function",
      "payable": true
    },
    {
      "inputs": [
        {
          "internalType": "uint256",
          "name": "c1",
          "type": "uint256"
        },
        {
          "internalType": "uint256",
          "name": "c2",
          "type": "uint256"
        }
      ],
      "name": "lpPointsDistributor",
      "outputs": [],
      "stateMutability": "payable",
      "type": "function",
      "payable": true
    },
    {
      "inputs": [
        {
          "internalType": "uint256",
          "name": "_lpback",
          "type": "uint256"
        }
      ],
      "name": "incentive",
      "outputs": [],
      "stateMutability": "payable",
      "type": "function",
      "payable": true
    }
  ],
  "bytecode": "0x6080604052600060075530600860006101000a81548173ffffffffffffffffffffffffffffffffffffffff021916908373ffffffffffffffffffffffffffffffffffffffff16021790555060006009553480156200005c57600080fd5b5060405162002e2138038062002e218339818101604052810190620000829190620002b5565b6040518060400160405280600e81526020017f6c6f79616c747920706f696e74730000000000000000000000000000000000008152506040518060400160405280600281526020017f6c700000000000000000000000000000000000000000000000000000000000008152508160039081620000ff919062000576565b50806004908162000111919062000576565b505050600073ffffffffffffffffffffffffffffffffffffffff168273ffffffffffffffffffffffffffffffffffffffff16141580156200017f5750600073ffffffffffffffffffffffffffffffffffffffff168173ffffffffffffffffffffffffffffffffffffffff1614155b620001c1576040517f08c379a0000000000000000000000000000000000000000000000000000000008152600401620001b890620006be565b60405180910390fd5b81600560006101000a81548173ffffffffffffffffffffffffffffffffffffffff021916908373ffffffffffffffffffffffffffffffffffffffff16021790555080600660006101000a81548173ffffffffffffffffffffffffffffffffffffffff021916908373ffffffffffffffffffffffffffffffffffffffff1602179055505050620006e0565b600080fd5b600073ffffffffffffffffffffffffffffffffffffffff82169050919050565b60006200027d8262000250565b9050919050565b6200028f8162000270565b81146200029b57600080fd5b50565b600081519050620002af8162000284565b92915050565b60008060408385031215620002cf57620002ce6200024b565b5b6000620002df858286016200029e565b9250506020620002f2858286016200029e565b9150509250929050565b600081519050919050565b7f4e487b7100000000000000000000000000000000000000000000000000000000600052604160045260246000fd5b7f4e487b7100000000000000000000000000000000000000000000000000000000600052602260045260246000fd5b600060028204905060018216806200037e57607f821691505b60208210810362000394576200039362000336565b5b50919050565b60008190508160005260206000209050919050565b60006020601f8301049050919050565b600082821b905092915050565b600060088302620003fe7fffffffffffffffffffffffffffffffffffffffffffffffffffffffffffffffff82620003bf565b6200040a8683620003bf565b95508019841693508086168417925050509392505050565b6000819050919050565b6000819050919050565b600062000457620004516200044b8462000422565b6200042c565b62000422565b9050919050565b6000819050919050565b620004738362000436565b6200048b62000482826200045e565b848454620003cc565b825550505050565b600090565b620004a262000493565b620004af81848462000468565b505050565b5b81811015620004d757620004cb60008262000498565b600181019050620004b5565b5050565b601f8211156200052657620004f0816200039a565b620004fb84620003af565b810160208510156200050b578190505b620005236200051a85620003af565b830182620004b4565b50505b505050565b600082821c905092915050565b60006200054b600019846008026200052b565b1980831691505092915050565b600062000566838362000538565b9150826002028217905092915050565b6200058182620002fc565b67ffffffffffffffff8111156200059d576200059c62000307565b5b620005a9825462000365565b620005b6828285620004db565b600060209050601f831160018114620005ee5760008415620005d9578287015190505b620005e5858262000558565b86555062000655565b601f198416620005fe866200039a565b60005b82811015620006285784890151825560018201915060208501945060208101905062000601565b8683101562000648578489015162000644601f89168262000538565b8355505b6001600288020188555050505b505050505050565b600082825260208201905092915050565b7f496e76616c696420746f6b656e20616464726573730000000000000000000000600082015250565b6000620006a66015836200065d565b9150620006b3826200066e565b602082019050919050565b60006020820190508181036000830152620006d98162000697565b9050919050565b61273180620006f06000396000f3fe6080604052600436106100fe5760003560e01c8063765e3a8611610095578063b97e8b9e11610064578063b97e8b9e14610333578063c974089b1461034f578063d57c3b201461036b578063dd62ed3e14610394578063e58205d1146103d1576100fe565b8063765e3a861461028257806395d89b411461029e578063a9059cbb146102c9578063b0a1c1c414610306576100fe565b806318160ddd116100d157806318160ddd146101b257806323b872dd146101dd578063313ce5671461021a57806370a0823114610245576100fe565b806306fdde0314610103578063095ea7b31461012e5780630b53e0b21461016b57806311053bcc14610196575b600080fd5b34801561010f57600080fd5b506101186103ed565b6040516101259190611f6a565b60405180910390f35b34801561013a57600080fd5b5061015560048036038101906101509190612025565b61047f565b6040516101629190612080565b60405180910390f35b34801561017757600080fd5b506101806104a2565b60405161018d91906120aa565b60405180910390f35b6101b060048036038101906101ab91906120c5565b6104a8565b005b3480156101be57600080fd5b506101c7610954565b6040516101d491906120aa565b60405180910390f35b3480156101e957600080fd5b5061020460048036038101906101ff9190612105565b61095e565b6040516102119190612080565b60405180910390f35b34801561022657600080fd5b5061022f61098d565b60405161023c9190612174565b60405180910390f35b34801561025157600080fd5b5061026c6004803603810190610267919061218f565b610996565b60405161027991906120aa565b60405180910390f35b61029c600480360381019061029791906121bc565b6109de565b005b3480156102aa57600080fd5b506102b3610d5d565b6040516102c09190611f6a565b60405180910390f35b3480156102d557600080fd5b506102f060048036038101906102eb9190612025565b610def565b6040516102fd9190612080565b60405180910390f35b34801561031257600080fd5b5061031b610e12565b60405161032a939291906121e9565b60405180910390f35b61034d600480360381019061034891906121bc565b610f63565b005b610369600480360381019061036491906121bc565b611219565b005b34801561037757600080fd5b50610392600480360381019061038d91906121bc565b611598565b005b3480156103a057600080fd5b506103bb60048036038101906103b69190612220565b6115b8565b6040516103c891906120aa565b60405180910390f35b6103eb60048036038101906103e691906120c5565b61163f565b005b6060600380546103fc9061228f565b80601f01602080910402602001604051908101604052809291908181526020018280546104289061228f565b80156104755780601f1061044a57610100808354040283529160200191610475565b820191906000526020600020905b81548152906001019060200180831161045857829003601f168201915b5050505050905090565b60008061048a6118ba565b90506104978185856118c2565b600191505092915050565b60095481565b6104b2828261163f565b6000600660009054906101000a900473ffffffffffffffffffffffffffffffffffffffff1673ffffffffffffffffffffffffffffffffffffffff166370a08231306040518263ffffffff1660e01b815260040161050f91906122cf565b602060405180830381865afa15801561052c573d6000803e3d6000fd5b505050506040513d601f19601f8201168201806040525081019061055091906122ff565b0361056457620186a06007819055506106bb565b600560009054906101000a900473ffffffffffffffffffffffffffffffffffffffff1673ffffffffffffffffffffffffffffffffffffffff166370a08231306040518263ffffffff1660e01b81526004016105bf91906122cf565b602060405180830381865afa1580156105dc573d6000803e3d6000fd5b505050506040513d601f19601f8201168201806040525081019061060091906122ff565b620186a0600660009054906101000a900473ffffffffffffffffffffffffffffffffffffffff1673ffffffffffffffffffffffffffffffffffffffff166370a08231306040518263ffffffff1660e01b815260040161065f91906122cf565b602060405180830381865afa15801561067c573d6000803e3d6000fd5b505050506040513d601f19601f820116820180604052508101906106a091906122ff565b6106aa919061235b565b6106b491906123cc565b6007819055505b600033905060075483670de0b6b3a7640000846106d8919061235b565b6106e291906123cc565b1015610723576040517f08c379a000000000000000000000000000000000000000000000000000000000815260040161071a90612449565b60405180910390fd5b600560009054906101000a900473ffffffffffffffffffffffffffffffffffffffff1673ffffffffffffffffffffffffffffffffffffffff166323b872dd82600860009054906101000a900473ffffffffffffffffffffffffffffffffffffffff16670de0b6b3a764000087610799919061235b565b6040518463ffffffff1660e01b81526004016107b7939291906124c8565b6020604051808303816000875af11580156107d6573d6000803e3d6000fd5b505050506040513d601f19601f820116820180604052508101906107fa919061252b565b610839576040517f08c379a0000000000000000000000000000000000000000000000000000000008152600401610830906125a4565b60405180910390fd5b600660009054906101000a900473ffffffffffffffffffffffffffffffffffffffff1673ffffffffffffffffffffffffffffffffffffffff166323b872dd82600860009054906101000a900473ffffffffffffffffffffffffffffffffffffffff16670de0b6b3a7640000866108af919061235b565b6040518463ffffffff1660e01b81526004016108cd939291906124c8565b6020604051808303816000875af11580156108ec573d6000803e3d6000fd5b505050506040513d601f19601f82011682018060405250810190610910919061252b565b61094f576040517f08c379a000000000000000000000000000000000000000000000000000000000815260040161094690612610565b60405180910390fd5b505050565b6000600254905090565b6000806109696118ba565b90506109768582856118d4565b610981858585611968565b60019150509392505050565b60006012905090565b60008060008373ffffffffffffffffffffffffffffffffffffffff1673ffffffffffffffffffffffffffffffffffffffff168152602001908152602001600020549050919050565b6000600660009054906101000a900473ffffffffffffffffffffffffffffffffffffffff1673ffffffffffffffffffffffffffffffffffffffff166370a08231306040518263ffffffff1660e01b8152600401610a3b91906122cf565b602060405180830381865afa158015610a58573d6000803e3d6000fd5b505050506040513d601f19601f82011682018060405250810190610a7c91906122ff565b03610a9057620186a0600781905550610be7565b600560009054906101000a900473ffffffffffffffffffffffffffffffffffffffff1673ffffffffffffffffffffffffffffffffffffffff166370a08231306040518263ffffffff1660e01b8152600401610aeb91906122cf565b602060405180830381865afa158015610b08573d6000803e3d6000fd5b505050506040513d601f19601f82011682018060405250810190610b2c91906122ff565b620186a0600660009054906101000a900473ffffffffffffffffffffffffffffffffffffffff1673ffffffffffffffffffffffffffffffffffffffff166370a08231306040518263ffffffff1660e01b8152600401610b8b91906122cf565b602060405180830381865afa158015610ba8573d6000803e3d6000fd5b505050506040513d601f19601f82011682018060405250810190610bcc91906122ff565b610bd6919061235b565b610be091906123cc565b6007819055505b600560009054906101000a900473ffffffffffffffffffffffffffffffffffffffff1673ffffffffffffffffffffffffffffffffffffffff166323b872dd3330846040518463ffffffff1660e01b8152600401610c4693929190612630565b6020604051808303816000875af1158015610c65573d6000803e3d6000fd5b505050506040513d601f19601f82011682018060405250810190610c89919061252b565b610c9257600080fd5b600660009054906101000a900473ffffffffffffffffffffffffffffffffffffffff1673ffffffffffffffffffffffffffffffffffffffff1663a9059cbb336103eb6103e860075486610ce5919061235b565b610cef919061235b565b610cf991906123cc565b6040518363ffffffff1660e01b8152600401610d16929190612667565b6020604051808303816000875af1158015610d35573d6000803e3d6000fd5b505050506040513d601f19601f82011682018060405250810190610d59919061252b565b5050565b606060048054610d6c9061228f565b80601f0160208091040260200160405190810160405280929190818152602001828054610d989061228f565b8015610de55780601f10610dba57610100808354040283529160200191610de5565b820191906000526020600020905b815481529060010190602001808311610dc857829003601f168201915b5050505050905090565b600080610dfa6118ba565b9050610e07818585611968565b600191505092915050565b6000806000600560009054906101000a900473ffffffffffffffffffffffffffffffffffffffff1673ffffffffffffffffffffffffffffffffffffffff166370a08231306040518263ffffffff1660e01b8152600401610e7291906122cf565b602060405180830381865afa158015610e8f573d6000803e3d6000fd5b505050506040513d601f19601f82011682018060405250810190610eb391906122ff565b600660009054906101000a900473ffffffffffffffffffffffffffffffffffffffff1673ffffffffffffffffffffffffffffffffffffffff166370a08231306040518263ffffffff1660e01b8152600401610f0e91906122cf565b602060405180830381865afa158015610f2b573d6000803e3d6000fd5b505050506040513d601f19601f82011682018060405250810190610f4f91906122ff565b610f5833610996565b925092509250909192565b60008060095483600560009054906101000a900473ffffffffffffffffffffffffffffffffffffffff1673ffffffffffffffffffffffffffffffffffffffff166370a08231306040518263ffffffff1660e01b8152600401610fc591906122cf565b602060405180830381865afa158015610fe2573d6000803e3d6000fd5b505050506040513d601f19601f8201168201806040525081019061100691906122ff565b611010919061235b565b61101a91906123cc565b915060095483600660009054906101000a900473ffffffffffffffffffffffffffffffffffffffff1673ffffffffffffffffffffffffffffffffffffffff166370a08231306040518263ffffffff1660e01b815260040161107b91906122cf565b602060405180830381865afa158015611098573d6000803e3d6000fd5b505050506040513d601f19601f820116820180604052508101906110bc91906122ff565b6110c6919061235b565b6110d091906123cc565b9050600560009054906101000a900473ffffffffffffffffffffffffffffffffffffffff1673ffffffffffffffffffffffffffffffffffffffff1663a9059cbb33846040518363ffffffff1660e01b815260040161112f929190612667565b6020604051808303816000875af115801561114e573d6000803e3d6000fd5b505050506040513d601f19601f82011682018060405250810190611172919061252b565b50600660009054906101000a900473ffffffffffffffffffffffffffffffffffffffff1673ffffffffffffffffffffffffffffffffffffffff1663a9059cbb33836040518363ffffffff1660e01b81526004016111d0929190612667565b6020604051808303816000875af11580156111ef573d6000803e3d6000fd5b505050506040513d601f19601f82011682018060405250810190611213919061252b565b50505050565b6000600660009054906101000a900473ffffffffffffffffffffffffffffffffffffffff1673ffffffffffffffffffffffffffffffffffffffff166370a08231306040518263ffffffff1660e01b815260040161127691906122cf565b602060405180830381865afa158015611293573d6000803e3d6000fd5b505050506040513d601f19601f820116820180604052508101906112b791906122ff565b036112cb57620186a0600781905550611422565b600660009054906101000a900473ffffffffffffffffffffffffffffffffffffffff1673ffffffffffffffffffffffffffffffffffffffff166370a08231306040518263ffffffff1660e01b815260040161132691906122cf565b602060405180830381865afa158015611343573d6000803e3d6000fd5b505050506040513d601f19601f8201168201806040525081019061136791906122ff565b620186a0600560009054906101000a900473ffffffffffffffffffffffffffffffffffffffff1673ffffffffffffffffffffffffffffffffffffffff166370a08231306040518263ffffffff1660e01b81526004016113c691906122cf565b602060405180830381865afa1580156113e3573d6000803e3d6000fd5b505050506040513d601f19601f8201168201806040525081019061140791906122ff565b611411919061235b565b61141b91906123cc565b6007819055505b600660009054906101000a900473ffffffffffffffffffffffffffffffffffffffff1673ffffffffffffffffffffffffffffffffffffffff166323b872dd3330846040518463ffffffff1660e01b815260040161148193929190612630565b6020604051808303816000875af11580156114a0573d6000803e3d6000fd5b505050506040513d601f19601f820116820180604052508101906114c4919061252b565b6114cd57600080fd5b600560009054906101000a900473ffffffffffffffffffffffffffffffffffffffff1673ffffffffffffffffffffffffffffffffffffffff1663a9059cbb336103eb6103e860075486611520919061235b565b61152a919061235b565b61153491906123cc565b6040518363ffffffff1660e01b8152600401611551929190612667565b6020604051808303816000875af1158015611570573d6000803e3d6000fd5b505050506040513d601f19601f82011682018060405250810190611594919061252b565b5050565b6115b533670de0b6b3a7640000836115b0919061235b565b611a5c565b50565b6000600160008473ffffffffffffffffffffffffffffffffffffffff1673ffffffffffffffffffffffffffffffffffffffff16815260200190815260200160002060008373ffffffffffffffffffffffffffffffffffffffff1673ffffffffffffffffffffffffffffffffffffffff16815260200190815260200160002054905092915050565b600080600660009054906101000a900473ffffffffffffffffffffffffffffffffffffffff1673ffffffffffffffffffffffffffffffffffffffff166370a08231306040518263ffffffff1660e01b815260040161169d91906122cf565b602060405180830381865afa1580156116ba573d6000803e3d6000fd5b505050506040513d601f19601f820116820180604052508101906116de91906122ff565b0361171d57620186a082846116f39190612690565b6116fd919061235b565b905080600960008282546117119190612690565b925050819055506118ac565b82600660009054906101000a900473ffffffffffffffffffffffffffffffffffffffff1673ffffffffffffffffffffffffffffffffffffffff166370a08231306040518263ffffffff1660e01b815260040161177991906122cf565b602060405180830381865afa158015611796573d6000803e3d6000fd5b505050506040513d601f19601f820116820180604052508101906117ba91906122ff565b60095484600560009054906101000a900473ffffffffffffffffffffffffffffffffffffffff1673ffffffffffffffffffffffffffffffffffffffff166370a08231306040518263ffffffff1660e01b815260040161181991906122cf565b602060405180830381865afa158015611836573d6000803e3d6000fd5b505050506040513d601f19601f8201168201806040525081019061185a91906122ff565b620186a0611868919061235b565b611872919061235b565b61187c919061235b565b61188691906123cc565b61189091906123cc565b905080600960008282546118a49190612690565b925050819055505b6118b581611598565b505050565b600033905090565b6118cf8383836001611ade565b505050565b60006118e084846115b8565b90507fffffffffffffffffffffffffffffffffffffffffffffffffffffffffffffffff81146119625781811015611952578281836040517ffb8f41b2000000000000000000000000000000000000000000000000000000008152600401611949939291906126c4565b60405180910390fd5b61196184848484036000611ade565b5b50505050565b600073ffffffffffffffffffffffffffffffffffffffff168373ffffffffffffffffffffffffffffffffffffffff16036119da5760006040517f96c6fd1e0000000000000000000000000000000000000000000000000000000081526004016119d191906122cf565b60405180910390fd5b600073ffffffffffffffffffffffffffffffffffffffff168273ffffffffffffffffffffffffffffffffffffffff1603611a4c5760006040517fec442f05000000000000000000000000000000000000000000000000000000008152600401611a4391906122cf565b60405180910390fd5b611a57838383611cb5565b505050565b600073ffffffffffffffffffffffffffffffffffffffff168273ffffffffffffffffffffffffffffffffffffffff1603611ace5760006040517fec442f05000000000000000000000000000000000000000000000000000000008152600401611ac591906122cf565b60405180910390fd5b611ada60008383611cb5565b5050565b600073ffffffffffffffffffffffffffffffffffffffff168473ffffffffffffffffffffffffffffffffffffffff1603611b505760006040517fe602df05000000000000000000000000000000000000000000000000000000008152600401611b4791906122cf565b60405180910390fd5b600073ffffffffffffffffffffffffffffffffffffffff168373ffffffffffffffffffffffffffffffffffffffff1603611bc25760006040517f94280d62000000000000000000000000000000000000000000000000000000008152600401611bb991906122cf565b60405180910390fd5b81600160008673ffffffffffffffffffffffffffffffffffffffff1673ffffffffffffffffffffffffffffffffffffffff16815260200190815260200160002060008573ffffffffffffffffffffffffffffffffffffffff1673ffffffffffffffffffffffffffffffffffffffff168152602001908152602001600020819055508015611caf578273ffffffffffffffffffffffffffffffffffffffff168473ffffffffffffffffffffffffffffffffffffffff167f8c5be1e5ebec7d5bd14f71427d1e84f3dd0314c0f7b2291e5b200ac8c7c3b92584604051611ca691906120aa565b60405180910390a35b50505050565b600073ffffffffffffffffffffffffffffffffffffffff168373ffffffffffffffffffffffffffffffffffffffff1603611d07578060026000828254611cfb9190612690565b92505081905550611dda565b60008060008573ffffffffffffffffffffffffffffffffffffffff1673ffffffffffffffffffffffffffffffffffffffff16815260200190815260200160002054905081811015611d93578381836040517fe450d38c000000000000000000000000000000000000000000000000000000008152600401611d8a939291906126c4565b60405180910390fd5b8181036000808673ffffffffffffffffffffffffffffffffffffffff1673ffffffffffffffffffffffffffffffffffffffff16815260200190815260200160002081905550505b600073ffffffffffffffffffffffffffffffffffffffff168273ffffffffffffffffffffffffffffffffffffffff1603611e235780600260008282540392505081905550611e70565b806000808473ffffffffffffffffffffffffffffffffffffffff1673ffffffffffffffffffffffffffffffffffffffff168152602001908152602001600020600082825401925050819055505b8173ffffffffffffffffffffffffffffffffffffffff168373ffffffffffffffffffffffffffffffffffffffff167fddf252ad1be2c89b69c2b068fc378daa952ba7f163c4a11628f55a4df523b3ef83604051611ecd91906120aa565b60405180910390a3505050565b600081519050919050565b600082825260208201905092915050565b60005b83811015611f14578082015181840152602081019050611ef9565b60008484015250505050565b6000601f19601f8301169050919050565b6000611f3c82611eda565b611f468185611ee5565b9350611f56818560208601611ef6565b611f5f81611f20565b840191505092915050565b60006020820190508181036000830152611f848184611f31565b905092915050565b600080fd5b600073ffffffffffffffffffffffffffffffffffffffff82169050919050565b6000611fbc82611f91565b9050919050565b611fcc81611fb1565b8114611fd757600080fd5b50565b600081359050611fe981611fc3565b92915050565b6000819050919050565b61200281611fef565b811461200d57600080fd5b50565b60008135905061201f81611ff9565b92915050565b6000806040838503121561203c5761203b611f8c565b5b600061204a85828601611fda565b925050602061205b85828601612010565b9150509250929050565b60008115159050919050565b61207a81612065565b82525050565b60006020820190506120956000830184612071565b92915050565b6120a481611fef565b82525050565b60006020820190506120bf600083018461209b565b92915050565b600080604083850312156120dc576120db611f8c565b5b60006120ea85828601612010565b92505060206120fb85828601612010565b9150509250929050565b60008060006060848603121561211e5761211d611f8c565b5b600061212c86828701611fda565b935050602061213d86828701611fda565b925050604061214e86828701612010565b9150509250925092565b600060ff82169050919050565b61216e81612158565b82525050565b60006020820190506121896000830184612165565b92915050565b6000602082840312156121a5576121a4611f8c565b5b60006121b384828501611fda565b91505092915050565b6000602082840312156121d2576121d1611f8c565b5b60006121e084828501612010565b91505092915050565b60006060820190506121fe600083018661209b565b61220b602083018561209b565b612218604083018461209b565b949350505050565b6000806040838503121561223757612236611f8c565b5b600061224585828601611fda565b925050602061225685828601611fda565b9150509250929050565b7f4e487b7100000000000000000000000000000000000000000000000000000000600052602260045260246000fd5b600060028204905060018216806122a757607f821691505b6020821081036122ba576122b9612260565b5b50919050565b6122c981611fb1565b82525050565b60006020820190506122e460008301846122c0565b92915050565b6000815190506122f981611ff9565b92915050565b60006020828403121561231557612314611f8c565b5b6000612323848285016122ea565b91505092915050565b7f4e487b7100000000000000000000000000000000000000000000000000000000600052601160045260246000fd5b600061236682611fef565b915061237183611fef565b925082820261237f81611fef565b915082820484148315176123965761239561232c565b5b5092915050565b7f4e487b7100000000000000000000000000000000000000000000000000000000600052601260045260246000fd5b60006123d782611fef565b91506123e283611fef565b9250826123f2576123f161239d565b5b828204905092915050565b7f4e65656420746f2070726f7669646520617320706572207265712076616c7565600082015250565b6000612433602083611ee5565b915061243e826123fd565b602082019050919050565b6000602082019050818103600083015261246281612426565b9050919050565b6000819050919050565b600061248e61248961248484611f91565b612469565b611f91565b9050919050565b60006124a082612473565b9050919050565b60006124b282612495565b9050919050565b6124c2816124a7565b82525050565b60006060820190506124dd60008301866124b9565b6124ea60208301856124b9565b6124f7604083018461209b565b949350505050565b61250881612065565b811461251357600080fd5b50565b600081519050612525816124ff565b92915050565b60006020828403121561254157612540611f8c565b5b600061254f84828501612516565b91505092915050565b7f5472616e73616374206f6620746f6b656e31206973206661696c656400000000600082015250565b600061258e601c83611ee5565b915061259982612558565b602082019050919050565b600060208201905081810360008301526125bd81612581565b9050919050565b7f5472616e73616374206f6620746f6b656e32206973206661696c656400000000600082015250565b60006125fa601c83611ee5565b9150612605826125c4565b602082019050919050565b60006020820190508181036000830152612629816125ed565b9050919050565b600060608201905061264560008301866122c0565b61265260208301856122c0565b61265f604083018461209b565b949350505050565b600060408201905061267c60008301856122c0565b612689602083018461209b565b9392505050565b600061269b82611fef565b91506126a683611fef565b92508282019050808211156126be576126bd61232c565b5b92915050565b60006060820190506126d960008301866122c0565b6126e6602083018561209b565b6126f3604083018461209b565b94935050505056fea264697066735822122071be8e46a588efeeb4f3bb9f6acb95b816135b64ded8433e0fd4dd97823f8fe864736f6c63430008140033",
  "immutableReferences": {},
  "source": "// SPDX-License-Identifier: MIT\r\n\r\npragma solidity >=0.7.0 <0.9.0;\r\n//import \"@openzeppelin/contracts/token/ERC20/IERC20.sol\";\r\nimport \"@openzeppelin/contracts/token/ERC20/ERC20.sol\";\r\n\r\ncontract pool is ERC20(\"loyalty points\",\"lp\"){\r\n\r\n        IERC20 token1;  //ETH\r\n        IERC20 token2;  //DAI\r\n      // loyalty points for liquidity providers\r\n    \r\n\r\n    constructor(address _token1, address _token2) {\r\n        require(_token1 != address(0) && _token2 != address(0), \"Invalid token address\");\r\n        token1 = IERC20(_token1);\r\n        token2 = IERC20(_token2);\r\n    }\r\n\r\n    uint private ratio = 0;\r\n    address payable og = payable(address(this));\r\n    uint public total_lp =0;\r\n\r\nfunction adder(uint c1) public {   \r\n        _mint(msg.sender, (c1*(10**18)));         // Users can mint 50 tokens every cooldownTime\r\n    }\r\n\r\n    // We can do this in C to save gas\r\n\r\n    // function reqValue_C2(uint c1) public view returns(uint){\r\n\r\n    //     uint value = token2.balanceOf(address(this))*(10**18)/token1.balanceOf(address(this)) ; // Did 10^20 instead of 10^18 to show 2 decimal places\r\n\r\n    //     return (c1*value);   \r\n    // \r\n\r\n    // function reqValue_C1(uint c2) public view returns(uint){\r\n\r\n    //     uint value = token1.balanceOf(address(this))*(10**18)/token2.balanceOf(address(this)) ;\r\n\r\n    //     return (c2*value);  \r\n    // }\r\n\r\n    function liquidityproviders(uint c1, uint c2) public payable {\r\n        lpPointsDistributor(c1,c2);\r\n\r\n        if(token2.balanceOf(address(this)) == 0) ratio=(10**5) ; \r\n        else ratio = (token2.balanceOf(address(this))*(10**5)) / token1.balanceOf(address(this)) ; \r\n        address payable gg = payable(msg.sender);\r\n        require( ((c2*(10**18))/c1) >= ratio , \"Need to provide as per req value\");     // Putting greater than because ratio should match\r\n        require(token1.transferFrom(gg,og,c1*(10**18)),\"Transact of token1 is failed\" );\r\n        require(token2.transferFrom(gg,og,c2*(10**18)),\"Transact of token2 is failed\" );\r\n        \r\n       \r\n        \r\n    }\r\n\r\n    function accountBalance()public view returns(uint,uint,uint){\r\n        return (token1.balanceOf(address(this)),token2.balanceOf(address(this)),balanceOf(msg.sender) );\r\n        \r\n    }\r\n    \r\n\r\n\r\n\r\n\r\n\r\n\r\n// trading c2 for c1\r\n    function trade_C2ForC1(uint c1) public payable {\r\n        if(token2.balanceOf(address(this)) == 0) ratio=10**5 ;  // don't need || as if one zero another also would be zero\r\n        else ratio = token2.balanceOf(address(this)) *(10**5)/ token1.balanceOf(address(this)) ;\r\n       \r\n        require(token1.transferFrom(msg.sender, address(this), c1));\r\n        // extracting from the pool\r\n        token2.transfer(msg.sender,c1*ratio*1000/1003);   //Sending money after deducting transaction fee => customer should give 0.3% extra before itself\r\n        \r\n\r\n    }\r\n\r\n// trading c1 for c2\r\n    function trade_C1ForC2(uint c2) public payable {\r\n         if(token2.balanceOf(address(this)) == 0) ratio=10**5; \r\n        else ratio = token1.balanceOf(address(this)) *(10**5)/ token2.balanceOf(address(this)) ;\r\n       \r\n        require(token2.transferFrom(msg.sender, address(this), c2));\r\n        // extracting from the pool\r\n        token1.transfer(msg.sender,c2*ratio*1000/1003);\r\n        \r\n    }\r\n// Need to think for sharing transfer fee and amount of liquidity points\r\n\r\n    function lpPointsDistributor(uint c1, uint c2) public payable {\r\n        uint loyaltyp=0;\r\n        if(token2.balanceOf(address(this))==0) {\r\n            loyaltyp=(c1+c2)*(10**5);\r\n            total_lp+=loyaltyp;\r\n        }\r\n        else {\r\n            loyaltyp= (((10**5)*token1.balanceOf(address(this))*c2*total_lp ) / token2.balanceOf(address(this)) )/c1;\r\n            total_lp+=loyaltyp;\r\n        }\r\n        adder(loyaltyp); //need to change it acc to contribution\r\n    }\r\n\r\n// Need to create incentive function so that user can revieve the compensation as per lp \r\n    function incentive(uint _lpback) public payable {\r\n        uint k1=0;\r\n        uint k2=0;\r\n        k1 = token1.balanceOf(address(this))*_lpback/total_lp;\r\n        k2 = token2.balanceOf(address(this))*_lpback/total_lp;\r\n        token1.transfer(msg.sender,k1);\r\n        token2.transfer(msg.sender,k2);\r\n    }\r\n\r\n\r\n}\r\n\r\n//0x78c4E798b65f1c96c4eEC6f5F93E51584593e723,0x5A606B5F9535c13B2F8DC12B3b976e9dC11427e6\r\n//0x7Dd7622649035B7460DF4c94D6dDE5c6Abc84e95,0x45373635641f5C51bf1029FdF2A225674D61AD45",
  "sourcePath": "C:\\Users\\sobhi\\OneDrive\\Desktop\\truffle\\contracts\\liquiditypool.sol",
  "compiler": {
    "name": "solc",
    "version": "0.8.20+commit.a1b79de6.Emscripten.clang"
  },
  "schemaVersion": "3.4.16",
  "updatedAt": "2024-06-24T17:14:25.972Z",
  "networkType": "ethereum",
  "devdoc": {
    "errors": {
      "ERC20InsufficientAllowance(address,uint256,uint256)": [
        {
          "details": "Indicates a failure with the `spender`s `allowance`. Used in transfers.",
          "params": {
            "allowance": "Amount of tokens a `spender` is allowed to operate with.",
            "needed": "Minimum amount required to perform a transfer.",
            "spender": "Address that may be allowed to operate on tokens without being their owner."
          }
        }
      ],
      "ERC20InsufficientBalance(address,uint256,uint256)": [
        {
          "details": "Indicates an error related to the current `balance` of a `sender`. Used in transfers.",
          "params": {
            "balance": "Current balance for the interacting account.",
            "needed": "Minimum amount required to perform a transfer.",
            "sender": "Address whose tokens are being transferred."
          }
        }
      ],
      "ERC20InvalidApprover(address)": [
        {
          "details": "Indicates a failure with the `approver` of a token to be approved. Used in approvals.",
          "params": {
            "approver": "Address initiating an approval operation."
          }
        }
      ],
      "ERC20InvalidReceiver(address)": [
        {
          "details": "Indicates a failure with the token `receiver`. Used in transfers.",
          "params": {
            "receiver": "Address to which tokens are being transferred."
          }
        }
      ],
      "ERC20InvalidSender(address)": [
        {
          "details": "Indicates a failure with the token `sender`. Used in transfers.",
          "params": {
            "sender": "Address whose tokens are being transferred."
          }
        }
      ],
      "ERC20InvalidSpender(address)": [
        {
          "details": "Indicates a failure with the `spender` to be approved. Used in approvals.",
          "params": {
            "spender": "Address that may be allowed to operate on tokens without being their owner."
          }
        }
      ]
    },
    "events": {
      "Approval(address,address,uint256)": {
        "details": "Emitted when the allowance of a `spender` for an `owner` is set by a call to {approve}. `value` is the new allowance."
      },
      "Transfer(address,address,uint256)": {
        "details": "Emitted when `value` tokens are moved from one account (`from`) to another (`to`). Note that `value` may be zero."
      }
    },
    "kind": "dev",
    "methods": {
      "allowance(address,address)": {
        "details": "See {IERC20-allowance}."
      },
      "approve(address,uint256)": {
        "details": "See {IERC20-approve}. NOTE: If `value` is the maximum `uint256`, the allowance is not updated on `transferFrom`. This is semantically equivalent to an infinite approval. Requirements: - `spender` cannot be the zero address."
      },
      "balanceOf(address)": {
        "details": "See {IERC20-balanceOf}."
      },
      "decimals()": {
        "details": "Returns the number of decimals used to get its user representation. For example, if `decimals` equals `2`, a balance of `505` tokens should be displayed to a user as `5.05` (`505 / 10 ** 2`). Tokens usually opt for a value of 18, imitating the relationship between Ether and Wei. This is the default value returned by this function, unless it's overridden. NOTE: This information is only used for _display_ purposes: it in no way affects any of the arithmetic of the contract, including {IERC20-balanceOf} and {IERC20-transfer}."
      },
      "name()": {
        "details": "Returns the name of the token."
      },
      "symbol()": {
        "details": "Returns the symbol of the token, usually a shorter version of the name."
      },
      "totalSupply()": {
        "details": "See {IERC20-totalSupply}."
      },
      "transfer(address,uint256)": {
        "details": "See {IERC20-transfer}. Requirements: - `to` cannot be the zero address. - the caller must have a balance of at least `value`."
      },
      "transferFrom(address,address,uint256)": {
        "details": "See {IERC20-transferFrom}. Emits an {Approval} event indicating the updated allowance. This is not required by the EIP. See the note at the beginning of {ERC20}. NOTE: Does not update the allowance if the current allowance is the maximum `uint256`. Requirements: - `from` and `to` cannot be the zero address. - `from` must have a balance of at least `value`. - the caller must have allowance for ``from``'s tokens of at least `value`."
      }
    },
    "version": 1
  },
  "userdoc": {
    "kind": "user",
    "methods": {},
    "version": 1
  }
}